{
  "_format": "hh-sol-artifact-1",
  "contractName": "GMResearchAI_V2_Final",
  "sourceName": "contracts_deploy/GMResearchAI_V2_Final.sol",
  "abi": [
    {
      "inputs": [
        {
          "internalType": "address",
          "name": "_gmToken",
          "type": "address"
        }
      ],
      "stateMutability": "nonpayable",
      "type": "constructor"
    },
    {
      "inputs": [
        {
          "internalType": "address",
          "name": "owner",
          "type": "address"
        }
      ],
      "name": "OwnableInvalidOwner",
      "type": "error"
    },
    {
      "inputs": [
        {
          "internalType": "address",
          "name": "account",
          "type": "address"
        }
      ],
      "name": "OwnableUnauthorizedAccount",
      "type": "error"
    },
    {
      "anonymous": false,
      "inputs": [
        {
          "indexed": true,
          "internalType": "address",
          "name": "user",
          "type": "address"
        },
        {
          "indexed": false,
          "internalType": "string",
          "name": "topic",
          "type": "string"
        },
        {
          "indexed": false,
          "internalType": "uint256",
          "name": "cost",
          "type": "uint256"
        }
      ],
      "name": "AIResearch",
      "type": "event"
    },
    {
      "anonymous": false,
      "inputs": [
        {
          "indexed": true,
          "internalType": "address",
          "name": "user",
          "type": "address"
        },
        {
          "indexed": false,
          "internalType": "string",
          "name": "topic",
          "type": "string"
        },
        {
          "indexed": false,
          "internalType": "uint256",
          "name": "cost",
          "type": "uint256"
        },
        {
          "indexed": false,
          "internalType": "bytes32",
          "name": "handle",
          "type": "bytes32"
        },
        {
          "indexed": false,
          "internalType": "bytes",
          "name": "proof",
          "type": "bytes"
        }
      ],
      "name": "AIResearchFHE",
      "type": "event"
    },
    {
      "anonymous": false,
      "inputs": [
        {
          "indexed": true,
          "internalType": "address",
          "name": "user",
          "type": "address"
        },
        {
          "indexed": false,
          "internalType": "uint256",
          "name": "reward",
          "type": "uint256"
        }
      ],
      "name": "DailyCheckIn",
      "type": "event"
    },
    {
      "anonymous": false,
      "inputs": [
        {
          "indexed": true,
          "internalType": "address",
          "name": "user",
          "type": "address"
        },
        {
          "indexed": false,
          "internalType": "bytes32",
          "name": "handle",
          "type": "bytes32"
        },
        {
          "indexed": false,
          "internalType": "bytes",
          "name": "proof",
          "type": "bytes"
        }
      ],
      "name": "DailyCheckInFHE",
      "type": "event"
    },
    {
      "anonymous": false,
      "inputs": [
        {
          "indexed": true,
          "internalType": "address",
          "name": "previousOwner",
          "type": "address"
        },
        {
          "indexed": true,
          "internalType": "address",
          "name": "newOwner",
          "type": "address"
        }
      ],
      "name": "OwnershipTransferred",
      "type": "event"
    },
    {
      "anonymous": false,
      "inputs": [
        {
          "indexed": true,
          "internalType": "address",
          "name": "funder",
          "type": "address"
        },
        {
          "indexed": false,
          "internalType": "uint256",
          "name": "amount",
          "type": "uint256"
        }
      ],
      "name": "PoolFunded",
      "type": "event"
    },
    {
      "inputs": [],
      "name": "AI_RESEARCH_COST",
      "outputs": [
        {
          "internalType": "uint256",
          "name": "",
          "type": "uint256"
        }
      ],
      "stateMutability": "view",
      "type": "function"
    },
    {
      "inputs": [],
      "name": "DAILY_CHECKIN_REWARD",
      "outputs": [
        {
          "internalType": "uint256",
          "name": "",
          "type": "uint256"
        }
      ],
      "stateMutability": "view",
      "type": "function"
    },
    {
      "inputs": [],
      "name": "dailyCheckIn",
      "outputs": [],
      "stateMutability": "nonpayable",
      "type": "function"
    },
    {
      "inputs": [
        {
          "internalType": "bytes32",
          "name": "encryptedRewardHandle",
          "type": "bytes32"
        },
        {
          "internalType": "bytes",
          "name": "inputProof",
          "type": "bytes"
        }
      ],
      "name": "dailyCheckInFHE",
      "outputs": [],
      "stateMutability": "nonpayable",
      "type": "function"
    },
    {
      "inputs": [
        {
          "internalType": "uint256",
          "name": "amount",
          "type": "uint256"
        }
      ],
      "name": "fundPool",
      "outputs": [],
      "stateMutability": "nonpayable",
      "type": "function"
    },
    {
      "inputs": [],
      "name": "getPoolBalance",
      "outputs": [
        {
          "internalType": "uint256",
          "name": "",
          "type": "uint256"
        }
      ],
      "stateMutability": "view",
      "type": "function"
    },
    {
      "inputs": [
        {
          "internalType": "address",
          "name": "user",
          "type": "address"
        }
      ],
      "name": "getResearchCount",
      "outputs": [
        {
          "internalType": "uint256",
          "name": "",
          "type": "uint256"
        }
      ],
      "stateMutability": "view",
      "type": "function"
    },
    {
      "inputs": [],
      "name": "gmToken",
      "outputs": [
        {
          "internalType": "contract IERC20",
          "name": "",
          "type": "address"
        }
      ],
      "stateMutability": "view",
      "type": "function"
    },
    {
      "inputs": [
        {
          "internalType": "address",
          "name": "user",
          "type": "address"
        }
      ],
      "name": "hasCheckedInToday",
      "outputs": [
        {
          "internalType": "bool",
          "name": "",
          "type": "bool"
        }
      ],
      "stateMutability": "view",
      "type": "function"
    },
    {
      "inputs": [
        {
          "internalType": "address",
          "name": "",
          "type": "address"
        }
      ],
      "name": "lastCheckInDay",
      "outputs": [
        {
          "internalType": "uint256",
          "name": "",
          "type": "uint256"
        }
      ],
      "stateMutability": "view",
      "type": "function"
    },
    {
      "inputs": [],
      "name": "owner",
      "outputs": [
        {
          "internalType": "address",
          "name": "",
          "type": "address"
        }
      ],
      "stateMutability": "view",
      "type": "function"
    },
    {
      "inputs": [
        {
          "internalType": "string",
          "name": "topic",
          "type": "string"
        }
      ],
      "name": "performAIResearch",
      "outputs": [],
      "stateMutability": "nonpayable",
      "type": "function"
    },
    {
      "inputs": [
        {
          "internalType": "string",
          "name": "topic",
          "type": "string"
        },
        {
          "internalType": "uint256",
          "name": "costPublic",
          "type": "uint256"
        },
        {
          "internalType": "bytes32",
          "name": "encryptedCostHandle",
          "type": "bytes32"
        },
        {
          "internalType": "bytes",
          "name": "inputProof",
          "type": "bytes"
        }
      ],
      "name": "performAIResearchFHE",
      "outputs": [],
      "stateMutability": "nonpayable",
      "type": "function"
    },
    {
      "inputs": [],
      "name": "renounceOwnership",
      "outputs": [],
      "stateMutability": "nonpayable",
      "type": "function"
    },
    {
      "inputs": [
        {
          "internalType": "address",
          "name": "",
          "type": "address"
        }
      ],
      "name": "researchCount",
      "outputs": [
        {
          "internalType": "uint256",
          "name": "",
          "type": "uint256"
        }
      ],
      "stateMutability": "view",
      "type": "function"
    },
    {
      "inputs": [
        {
          "internalType": "address",
          "name": "newOwner",
          "type": "address"
        }
      ],
      "name": "transferOwnership",
      "outputs": [],
      "stateMutability": "nonpayable",
      "type": "function"
    }
  ],
  "bytecode": "0x608060405234801561001057600080fd5b5060405161111338038061111383398101604081905261002f916100d4565b338061005557604051631e4fbdf760e01b81526000600482015260240160405180910390fd5b61005e81610084565b50600180546001600160a01b0319166001600160a01b0392909216919091179055610104565b600080546001600160a01b038381166001600160a01b0319831681178455604051919092169283917f8be0079c531659141344cd1fd0a4f28419497f9722a3daafe3b4186f6b6457e09190a35050565b6000602082840312156100e657600080fd5b81516001600160a01b03811681146100fd57600080fd5b9392505050565b611000806101136000396000f3fe608060405234801561001057600080fd5b50600436106101005760003560e01c8063adf8ad8011610097578063e2a1536311610066578063e2a1536314610237578063e3703d1c1461024a578063f2fde38b1461025d578063f54b14bd1461027057600080fd5b8063adf8ad80146101cc578063c2c0e385146101f5578063c483da2214610204578063da3a5f721461022457600080fd5b80638da5cb5b116100d35780638da5cb5b146101755780639bd2338f14610186578063abd70aa2146101b4578063ac389c36146101bc57600080fd5b80633504f52b146101055780636919cdc91461012d578063715018a6146101585780637a49e0b814610162575b600080fd5b610118610113366004610be8565b610278565b60405190151581526020015b60405180910390f35b600154610140906001600160a01b031681565b6040516001600160a01b039091168152602001610124565b6101606102ab565b005b610160610170366004610c61565b6102bf565b6000546001600160a01b0316610140565b6101a6610194366004610be8565b60036020526000908152604090205481565b604051908152602001610124565b6101a661035c565b6101a668056bc75e2d6310000081565b6101a66101da366004610be8565b6001600160a01b031660009081526003602052604090205490565b6101a6678ac7230489e8000081565b6101a6610212366004610be8565b60026020526000908152604090205481565b610160610232366004610cad565b6103ce565b610160610245366004610d6b565b6104a6565b610160610258366004610da8565b61067f565b61016061026b366004610be8565b6108fc565b61016061093a565b6000806102886201518042610e2b565b6001600160a01b0390931660009081526002602052604090205490921492915050565b6102b3610b6b565b6102bd6000610b98565b565b306001600160a01b031663f54b14bd6040518163ffffffff1660e01b8152600401600060405180830381600087803b1580156102fa57600080fd5b505af115801561030e573d6000803e3d6000fd5b50505050336001600160a01b03167f48a68f30faf5296e2ce3d3c87bbf0836ad04eae04f4bcbe016db311700b1392784848460405161034f93929190610e76565b60405180910390a2505050565b6001546040516370a0823160e01b81523060048201526000916001600160a01b0316906370a0823190602401602060405180830381865afa1580156103a5573d6000803e3d6000fd5b505050506040513d601f19601f820116820180604052508101906103c99190610e99565b905090565b6001546040516323b872dd60e01b8152336004820152306024820152604481018390526001600160a01b03909116906323b872dd906064016020604051808303816000875af1158015610425573d6000803e3d6000fd5b505050506040513d601f19601f820116820180604052508101906104499190610eb2565b61046e5760405162461bcd60e51b815260040161046590610ed4565b60405180910390fd5b60405181815233907f32173d8e51cec3a6fe484b7a1c3febe760cdf96e03d4cca36a43563a4333e8389060200160405180910390a250565b6001546040516370a0823160e01b8152336004820181905291678ac7230489e80000916001600160a01b03909116906370a0823190602401602060405180830381865afa1580156104fb573d6000803e3d6000fd5b505050506040513d601f19601f8201168201806040525081019061051f9190610e99565b10156105675760405162461bcd60e51b8152602060048201526017602482015276496e73756666696369656e7420474d2062616c616e636560481b6044820152606401610465565b6001546040516323b872dd60e01b81526001600160a01b038381166004830152306024830152678ac7230489e800006044830152909116906323b872dd906064016020604051808303816000875af11580156105c7573d6000803e3d6000fd5b505050506040513d601f19601f820116820180604052508101906105eb9190610eb2565b6106075760405162461bcd60e51b815260040161046590610ed4565b6001600160a01b038116600090815260036020526040812080549161062b83610efd565b9190505550806001600160a01b03167f63dd300f9e5c1dcf89883238b0344d13a5f2c0302ea6303af71348d0774ff90083678ac7230489e80000604051610673929190610f6a565b60405180910390a25050565b678ac7230489e8000084146106ce5760405162461bcd60e51b8152602060048201526015602482015274125b9d985b1a59081c995cd9585c98da0818dbdcdd605a1b6044820152606401610465565b6001546040516370a0823160e01b8152336004820181905291678ac7230489e80000916001600160a01b03909116906370a0823190602401602060405180830381865afa158015610723573d6000803e3d6000fd5b505050506040513d601f19601f820116820180604052508101906107479190610e99565b101561078f5760405162461bcd60e51b8152602060048201526017602482015276496e73756666696369656e7420474d2062616c616e636560481b6044820152606401610465565b6001546040516323b872dd60e01b81526001600160a01b038381166004830152306024830152678ac7230489e800006044830152909116906323b872dd906064016020604051808303816000875af11580156107ef573d6000803e3d6000fd5b505050506040513d601f19601f820116820180604052508101906108139190610eb2565b61082f5760405162461bcd60e51b815260040161046590610ed4565b6001600160a01b038116600090815260036020526040812080549161085383610efd565b9190505550806001600160a01b03167f63dd300f9e5c1dcf89883238b0344d13a5f2c0302ea6303af71348d0774ff90087678ac7230489e8000060405161089b929190610f6a565b60405180910390a2806001600160a01b03167fe601626f0ce17304c821c8d036d461b15a8c233401333a6050d5cb54d8d144ca87678ac7230489e800008787876040516108ec959493929190610f8c565b60405180910390a2505050505050565b610904610b6b565b6001600160a01b03811661092e57604051631e4fbdf760e01b815260006004820152602401610465565b61093781610b98565b50565b33600061094a6201518042610e2b565b6001600160a01b03831660009081526002602052604090205490915081116109b45760405162461bcd60e51b815260206004820152601860248201527f416c726561647920636865636b656420696e20746f64617900000000000000006044820152606401610465565b6001546040516370a0823160e01b815230600482015268056bc75e2d63100000916001600160a01b0316906370a0823190602401602060405180830381865afa158015610a05573d6000803e3d6000fd5b505050506040513d601f19601f82011682018060405250810190610a299190610e99565b1015610a775760405162461bcd60e51b815260206004820152601960248201527f496e73756666696369656e7420706f6f6c2062616c616e6365000000000000006044820152606401610465565b6001600160a01b0382811660008181526002602052604090819020849055600154905163a9059cbb60e01b8152600481019290925268056bc75e2d6310000060248301529091169063a9059cbb906044016020604051808303816000875af1158015610ae7573d6000803e3d6000fd5b505050506040513d601f19601f82011682018060405250810190610b0b9190610eb2565b610b275760405162461bcd60e51b815260040161046590610ed4565b816001600160a01b03167f1b9915d6a77b90bd811ac30f31bcb0ff458b4da95bd6d1598f74ab86053c588868056bc75e2d6310000060405161067391815260200190565b6000546001600160a01b031633146102bd5760405163118cdaa760e01b8152336004820152602401610465565b600080546001600160a01b038381166001600160a01b0319831681178455604051919092169283917f8be0079c531659141344cd1fd0a4f28419497f9722a3daafe3b4186f6b6457e09190a35050565b600060208284031215610bfa57600080fd5b81356001600160a01b0381168114610c1157600080fd5b9392505050565b60008083601f840112610c2a57600080fd5b50813567ffffffffffffffff811115610c4257600080fd5b602083019150836020828501011115610c5a57600080fd5b9250929050565b600080600060408486031215610c7657600080fd5b83359250602084013567ffffffffffffffff811115610c9457600080fd5b610ca086828701610c18565b9497909650939450505050565b600060208284031215610cbf57600080fd5b5035919050565b634e487b7160e01b600052604160045260246000fd5b600082601f830112610ced57600080fd5b813567ffffffffffffffff811115610d0757610d07610cc6565b604051601f8201601f19908116603f0116810167ffffffffffffffff81118282101715610d3657610d36610cc6565b604052818152838201602001851015610d4e57600080fd5b816020850160208301376000918101602001919091529392505050565b600060208284031215610d7d57600080fd5b813567ffffffffffffffff811115610d9457600080fd5b610da084828501610cdc565b949350505050565b600080600080600060808688031215610dc057600080fd5b853567ffffffffffffffff811115610dd757600080fd5b610de388828901610cdc565b9550506020860135935060408601359250606086013567ffffffffffffffff811115610e0e57600080fd5b610e1a88828901610c18565b969995985093965092949392505050565b600082610e4857634e487b7160e01b600052601260045260246000fd5b500490565b81835281816020850137506000828201602090810191909152601f909101601f19169091010190565b838152604060208201526000610e90604083018486610e4d565b95945050505050565b600060208284031215610eab57600080fd5b5051919050565b600060208284031215610ec457600080fd5b81518015158114610c1157600080fd5b6020808252600f908201526e151c985b9cd9995c8819985a5b1959608a1b604082015260600190565b600060018201610f1d57634e487b7160e01b600052601160045260246000fd5b5060010190565b6000815180845260005b81811015610f4a57602081850181015186830182015201610f2e565b506000602082860101526020601f19601f83011685010191505092915050565b604081526000610f7d6040830185610f24565b90508260208301529392505050565b608081526000610f9f6080830188610f24565b8660208401528560408401528281036060840152610fbe818587610e4d565b9897505050505050505056fea264697066735822122060ee823a5c23ddabdaa50e37c9388a6c76ece327650ad66f992359967bde50a664736f6c634300081b0033",
  "linkReferences": {},
  "deployedLinkReferences": {}
}